:020000040000FA
:10000000700A002049020000650200007D01000026
:1000100000000000000000000000000000000000E0
:100020000000000000000000000000006902000065
:1000300000000000000000006B0200006D020000E4
:100040006F0200006F0200000507000017070000A4
:100050006F0200006F0200006F0200006F020000DC
:100060006F0200006F0200006F0200006F020000CC
:100070006F0200006F0200006F0200006F020000BC
:100080006F0200006F0200006F0200006F020000AC
:100090006F0200006F0200006F0200006F0200009C
:1000A000000000006F0200006F0200006F020000FD
:1000B0006F0200006F0200006F0200006F0200007C
:1000C00000F002F800F04BF80CA030C808382418F3
:1000D0002D18A246671EAB4654465D46AC4201D180
:1000E00000F03DF87E460F3E0FCCB6460126334267
:1000F00000D0FB1AA246AB4633431847DC0D000084
:10010000FC0D0000103A02D378C878C1FAD8520723
:1001100001D330C830C101D504680C6070470000BD
:100120000023002400250026103A01D378C1FBD813
:10013000520700D330C100D50B60704710B5642959
:1001400002D100F029FC10BD782902D100F05AFC40
:1001500010BD002010BD1FB51FBD10B510BD00F0B3
:100160004DFE1146FFF7F7FF00F048FB00F065FE7B
:1001700003B4FFF7F2FF03BC00F06CFE04207146ED
:10018000084202D0EFF3098001E0EFF308807146E6
:10019000004A1047EF02000010B52648406AC1032C
:1001A00001D5002010BDC10401D5022400E00124C6
:1001B0008105890F0FD001290FD002290FD01021FE
:1001C0008006800E1C4A2030504300F0CEFC2146B1
:1001D00000F0CBFC10BD0221F2E70421F0E708217A
:1001E000EEE710B5134C206941071348490F0DD0B5
:1001F000012904D0022905D0032906D006E00120F8
:10020000C00303E0FFF7C8FF00E00C48E1690907FD
:10021000090F491C00F0A9FC10BD10B5FFF7E1FF64
:10022000074C084920604A10801800F09EFC60606E
:1002300010BD000000020050001BB7001027000096
:100240000000002040420F000C480D4901600D499C
:1002500001600D4901600D4A0D49116000210160E6
:100260000C480047FEE7FEE7FEE7FEE7FEE7FEE795
:1002700009480A490A4A0B4B704700000001005028
:1002800059000000160000008800000060000050C7
:10029000A55A0000C100000070000020700A002074
:1002A000700500207005002010B5044601681FA0ED
:1002B00000F03CFB20A0616800F038FB21A0A168A1
:1002C00000F034FB22A0E16800F030FB23A021699C
:1002D00000F02CFB24A0616900F028FB25A0A16997
:1002E00000F024FB26A0E16900F020FB10BD0446CD
:1002F00026A000F01BFB2046FFF7D6FFFEE72949AA
:100300008A695205FCD408600A2804D1886940052E
:10031000FCD40D200860704700B50346FFF7EFFFDF
:10032000184600BD0020C0437047000072302020F6
:100330003D20307825780A00723120203D20307829
:1003400025780A00723220203D20307825780A0076
:10035000723320203D20307825780A007231322017
:100360003D20307825780A006C7220203D203078BE
:1003700025780A00706320203D20307825780A0017
:10038000707372203D20307825780A00496E20482D
:10039000617264204661756C742048616E646C659E
:1003A000720A00000000054097480068C00700D0AE
:1003B0009648704794480068800702D50120C00322
:1003C00070470020704710B5FFF727FF904800687E
:1003D00010BD10B5FFF721FF8D48006810BD10B5A6
:1003E0008948406AC10301D5002010BDC10401D570
:1003F000022400E001248105890F0FD001290FD0CC
:1004000002290FD010218006800E804A20305043F0
:1004100000F0ABFB214600F0A8FB10BD0221F2E783
:100420000421F0E70821EEE710B504467949764B40
:1004300005E00A46491E002A01DC002010BDDA68EA
:1004400020469043F5D1012010BDF8B56E4C0F4603
:10045000E568844610262068354004210843206062
:100460003046FFF7E1FF2069072108432061E0697A
:10047000000900013843E061206988436146084370
:100480002061FFF7CAFE002D02D12068B043206032
:10049000F8BD7FB5604A0B4636CA6E4636C65F4920
:1004A0008B4202D35E498B4200D90B46012464047F
:1004B000A04200D000245B49184600F056FB0321FF
:1004C00000F053FB8200102003E04008520810287F
:1004D000FBD85F2AF9D803216B468D005D59854210
:1004E00001D0491EF9D509022143203A464811435B
:1004F0004162416AC201914341620420FFF794FFC7
:10050000FFF76DFF04B070BD10B504463E480168AA
:1005100021430160E00702D00120FFF785FFA0071B
:1005200002D50220FFF780FF600702D51020FFF7F9
:100530007BFF200702D50820FFF776FF10BDF8B536
:10054000314DEC68102631493440314F884207D193
:100550000420FFF7D9FF00210720FFF776FF1FE0F7
:100560003149884202D33149884200D90846296876
:10057000C90704D041000020FFF78BFF06E04100CF
:1005800001204004FFF785FFEC6834400121022080
:10059000FFF75BFF002C03D1286804218843286003
:1005A0003868F8BD70B5840A23061B0E0DD003030E
:1005B000154D9B0F9B001C355B191D688605E4B229
:1005C000F60EB440A54315431D60420E12070ED02F
:1005D00042000D4B920F92001033D2181368C400E2
:1005E000240FC001C00E8440A3430B43136070BDB1
:1005F000C10F8A00044951184A68C306DB0E012066
:10060000984002434A60704700020050001BB70048
:100610000000002060EA0000700E0000006CDC02A8
:10062000000E270740420F0000366E0180DE800278
:100630000521020E090751188B68012282401343DD
:100640008B60886890438860704700007FB5194AC6
:100650000E4604460FCA6D460FC5174948696A46DB
:100660008007000F1058C96909050D0F6D1C00287F
:1006700001D1FFF791FD294600F077FA05460020E9
:10068000A0630320A060002E13D0700840193146EB
:1006900000F06BFA0949401E884209D9F000401960
:1006A000314600F062FA01210009C907401E0843E3
:1006B00060627FBD800E000000020050FFFF00005E
:1006C000F0B5002301273C469C400C4208D0056849
:1006D0005C000326A640B5431646A6403543056098
:1006E0005B1C102BEFD3F0BD10B58369140E8C404A
:1006F00023438361C3691202120A8A401343C36110
:1007000010BD000010B5FF2052490130086252A010
:1007100000F00CF910BD10B501204E49C00308626D
:1007200053A000F003F910BD10B55848FFF780FF43
:10073000E12149025648FFF789FFFFF74AFE0146CB
:1007400054A000F0F3F8FFF72FFE014658A000F088
:10075000EDF8FFF72FFE01465BA000F0E7F8FFF78A
:1007600032FE01465EA000F0E1F8FFF738FE0146D8
:1007700062A000F0DBF810BD70B559211622664C5E
:10078000882002E02160226020602368012BF9D1DB
:1007900000210846FFF759FE0720FFF7B5FE13209A
:1007A000FFF742FE5D48FFF7CAFE5D4D2846FFF7A2
:1007B0001FFF002211462846FFF7F4FEFFF72DFD2C
:1007C00005200007816B772291438163816B1122A1
:1007D00011438163C16BC908C900C163C16B0322A6
:1007E0001143C163C16B072212079143C163C16BFF
:1007F0002A061143C1630020206070BDFFF7BCFFD3
:10080000FFF792FFFF26134C0136002231462046A7
:10081000FFF756FF012208212046FFF765FF414DF3
:10082000042028604703002239462046FFF748FF8E
:1008300001220F212046FFF757FF082028603A4980
:1008400020200860606930436061606938436061FE
:10085000FEE700004040005050422E382045494EEF
:100860005430206F636375727265642E200D0A0028
:1008700050422E31352045494E5431206F63637507
:10088000727265642E200D0A000000001000000442
:10089000000005400D0A434C4B5F476574435055BB
:1008A00046726571203A202538640D0A0000000068
:1008B000434C4B5F47657448585446726571203A03
:1008C000202538640D0A0000434C4B5F4765744C8B
:1008D000585446726571203A202538640D0A00008C
:1008E000434C4B5F47657450434C4B3046726571C7
:1008F000203A202538640D0A00000000434C4B5F6D
:1009000047657450434C4B3146726571203A20253F
:1009100038640D0A000000000001005080DE8002F3
:10092000103D00A600E100E0804100500FB40549F1
:1009300010B503AA029800F021FA10BC08BC04B05C
:10094000184700000800002070B50446856900685B
:10095000C10601D5302600E02026C00707D070BDB3
:1009600062683046A1689047206A401C20626D1E74
:10097000F6D570BD70B5044685690078C00707D10B
:1009800070BD6268A16820209047206A401C2062E8
:100990006D1EF6D570BD0000F7B5002575291068ED
:1009A000009914A611D0C046C046002802DA404281
:1009B00011A608E0009909688A0701D50FA602E090
:1009C000490704D50EA6012501E0C046C046009F98
:1009D0000024243704E000F0E5F930313955641C77
:1009E0000028F8D12B4632462146009800F06DF9D8
:1009F000FEBD0000000000002D0000002B000000E4
:100A00002000000070B504460D4621461068C0461F
:100A1000C0462188090502D50F4A7A4402E00E4AF1
:100A20007A440E3223460021243305E006070009EC
:100A3000360F965D5E54491C0028F7D120780023BC
:100A4000000705D5702D03D0002901D002231132F3
:100A5000204600F03AF970BD92040000F3B5044658
:100A6000002081B020622046E168884700287AD0C3
:100A7000252802D06268A16871E0E168204600255F
:100A8000884706460020E0610746A0612A2E0AD06A
:100A9000304600F0E6F9002827D0B8000019303EB3
:100AA0000090866119E00298BA00121902C891619B
:100AB00002902046E1688847012F064617D1E06979
:100AC00000281FDA202085431CE000980A21806955
:100AD000484300998019303888612046E16888478A
:100AE000064600F0BEF90028EFD1012F0AD02E2EC5
:100AF00008D12046E16888470646202005437F1C30
:100B0000022FC3DBA069002803DA4042A061012064
:100B10000543E80701D010208543002E23D030463E
:100B20004138192803D80120C00205432036204649
:100B300025603146029A1546FFF700FB00280BD0CE
:100B4000012806D0ED1DE808C000083002908AE7B1
:100B500009E02D1D029586E762683046A16890473E
:100B6000206A401C7EE7206AFEBD002203098B42FA
:100B70002CD3030A8B4211D300239C464EE003463C
:100B80000B433CD4002243088B4231D303098B42F0
:100B90001CD3030A8B4201D394463FE0C3098B4226
:100BA00001D3CB01C01A524183098B4201D38B017F
:100BB000C01A524143098B4201D34B01C01A524122
:100BC00003098B4201D30B01C01A5241C3088B4267
:100BD00001D3CB00C01A524183088B4201D38B0052
:100BE000C01A524143088B4201D34B00C01A5241F4
:100BF000411A00D201465241104670475DE0CA0FCB
:100C000000D04942031000D34042534000229C468A
:100C100003098B422DD3030A8B4212D3FC22890194
:100C200012BA030A8B420CD3890192118B4208D36A
:100C3000890192118B4204D389013AD0921100E0CC
:100C40008909C3098B4201D3CB01C01A52418309E0
:100C50008B4201D38B01C01A524143098B4201D30D
:100C60004B01C01A524103098B4201D30B01C01A38
:100C70005241C3088B4201D3CB00C01A52418308B2
:100C80008B4201D38B00C01A5241D9D243088B4208
:100C900001D34B00C01A5241411A00D201466346AB
:100CA00052415B10104601D34042002B00D549420F
:100CB000704763465B1000D3404201B50020C04638
:100CC000C04602BD704770477047FFB504460D46E9
:100CD00081B0243000902168880604D51022E06994
:100CE0009143216000E00120A84201DD471B00E0A4
:100CF00000270498A1697A191018081AA0612078B1
:100D0000C00602D42046FFF71FFE002608E0039825
:100D10006268A168805D9047206A401C761C206252
:100D200004988642F3DB2078C0060AD52046FFF7F8
:100D30000BFE06E06268A16830209047206A401CE4
:100D4000206238467F1E0028F4DC07E000986268C5
:100D5000A168405D9047206A401C206228466D1EB5
:100D60000028F3DC2046FFF705FE2078000602D5B8
:100D7000022005B0F0BD0120FBE70000084B70B574
:100D80000D467B4400F027F804462846FFF7CAFAD0
:100D9000002802D00020C04370BD204670BD000076
:100DA00093F5FFFF01468008081A02091018020A8D
:100DB0001018020C1018C008820012185200891A6C
:100DC00001E0401C0A390A29FBD2704701694A1C1C
:100DD00002610878704700B58FB00291002105913B
:100DE0000549019379440391114604906846FFF741
:100DF00035FE0FB000BD0000E5FFFFFF754600F0B7
:100E000025F8AE46050069465346C008C000854631
:100E100018B020B5FFF72CFA60BC00274908B64689
:100E20000026C0C5C0C5C0C5C0C5C0C5C0C5C0C5F9
:100E3000C0C5403D49008D46704710B50446C046C8
:100E4000C0462046FFF794F910BD000000487047E7
:100E50000C00002001491820ABBEFEE7260002006E
:100E6000704730380A2801D20120704700207047AF
:100E70000200000004000000080000001000000054
:100E8000001BB7000080000000000000001BB7003E
:100E9000001BB7000080000000000000001BB7002E
:100EA000001BB7000080000000000000001BB7001E
:100EB0003031323334353637383941424344454690
:100EC000403058003031323334353637383961628A
:100ED0006364656640307800F80E00000000002072
:100EE0000C00000004010000040F00000C000020B2
:100EF000640A000020010000001BB7000C00000085
:040F000000000000ED
:0400000500000249AC
:00000001FF
